:0300000002016E8C
:0C016E00787FE4F6D8FD75812E0201B503
:10000E0012038F1203F88F28E5286002F525E528E4
:10001E00B40207E4F527F526F524E52864037033CA
:10002E00E527FD7C007F011203177F057E0012037A
:10003E00A6E526FD7C007F021203177F057E0012C7
:10004E0003A6E524FD7C007F031203177F057E00C7
:10005E001203A6E528B404157F011202998F277F9B
:10006E00021202998F267F031202998F247D0B7F35
:10007E00031200037D0B7F06120003E52775F00ABD
:10008E0084FD7F01120003E52775F00A84ADF07F31
:10009E0002120003E52675F00A84FD7F04120003A8
:1000AE00E52675F00A84ADF07F05120003E5247590
:1000BE00F00A84FD7F07120003E52475F00A84AD73
:0900CE00F07F081200030200118A
:1002F2000524E524D39463401BE4F5240526E52672
:10030200D3943B400FE4F5260527E527D3943B40E1
:0503120003E4F52722C1
:03000B000200D719
:1000D700C0E0C0F0C083C082C0D075D000C000C0EF
:0D00E70001C002C003C004C005C006C00770
:1000F400758A66758CFC051FE51F7002051E0521B7
:10010400E52170020520E525B401080523E52370E7
:10011400020522C3E51F9414E51E94004009751ED0
:1001240000751F00120260C3E5219402E5209400CB
:100134004009752000752100120376C3E523940A53
:0F014400E522940040097522007523001202F293
:10015300D007D006D005D004D003D002D001D00000
:0B016300D0D0D082D083D0F0D0E032AA
:1003A600EF1FAC0670011E4C600B007D027CC7DCA3
:0503B600FEDDFC80EB00
:0103BB00221F
:0503F800AF2BE4F52B22
:0103FD0022DD
:1003BC00E4FF20B1010F20B0027F0220B2027F03C4
:0503CC0020B3027F04D4
:0103D1002209
:1002600085292A1203BC8F29E52AB40107E52970E4
:1002700003752B01E52AB40207E5297003752B02EB
:10028000E52AB40307E5297003752B03E52AB404B6
:0802900007E5297003752B043A
:010298002243
:100359000909000A0A0A0A0A0A0A0A0C123F065B74
:0C0369004F666D7D077F6F0040010801AA
:0700030074092FF8A6052285
:1001FA00E4F580EF14B40800505490021275F0032D
:10020A00A4C58325F0C5837302022A02022E0202C4
:10021A003202023602023A02024202024A02025240
:10022A00D2A4800ED2A48012D2A48016D2A4801A9C
:10023A00C2A4D2A3D2A28016C2A4D2A3C2A2800E02
:10024A00C2A4C2A3D2A28006C2A4C2A3C2A274122A
:06025A002DF8E6F58022FC
:1003760074092508F8E6FDAF081201FA0508E50834
:08038600D3940840037508013F
:01038E00224C
:10038F005389F0438901758A66758CFCC28DD28CB6
:07039F00D2A9D2AFC2B922BE
:100317008F2C8C2D8D2E1203E87FA01202C9120399
:10032700D2AF2C1202C91203D2AF2E1202C9120386
:04033700D20203F1FA
:020299008F2CA8
:10029B001203E87FA01202C91203D2AF2C1202C9BB
:1002AB001203D21203E87FA11202C91203D2120366
:0D02BB003B8F2D7F011203DE1203F1AF2DEA
:0102C8002213
:0903E800D2A0D2A1C2A0C2A12240
:0703F100C2A0D2A1D2A0229C
:0202C900AD077F
:1002CB00E4FB74807E00A803088006CEA2E713CE61
:1002DB0013D8F8FFEDF582EF558224FF92A0D2A13F
:0602EB00C2A10BBB08DC00
:0102F10022EA
:10033B00E4FFD2A0FED2A130A00D7480A8060880E5
:0D034B0002C313D8FC4207C2A10EBE08E891
:010358002282
:0A03DE00EF24FF92A0D2A1C2A122D9
:0B03D200D2A0D2A1A2A0E433FFC2A180
:0103DD0022FD
:10017A0002000EE493A3F8E493A34003F68001F28D
:10018A0008DFF48029E493A3F85407240CC8C33386
:10019A00C4540F4420C8834004F456800146F6DF55
:1001AA00E4800B0102040810204080900359E47E89
:1001BA00019360BCA3FF543F30E509541FFEE4934A
:1001CA00A360010ECF54C025E060A840B8E493A311
:1001DA00FAE493A3F8E493A3C8C582C8CAC583CA3C
:1001EA00F0A3C8C582C8CAC583CADFE9DEE780BEF4
:010375000087
:00000001FF
